{
  "contractName": "SimpleStorage",
  "abi": [
    {
      "inputs": [],
      "payable": false,
      "stateMutability": "nonpayable",
      "type": "constructor"
    },
    {
      "anonymous": false,
      "inputs": [
        {
          "indexed": false,
          "internalType": "string",
          "name": "HashToStored",
          "type": "string"
        },
        {
          "indexed": false,
          "internalType": "address",
          "name": "add",
          "type": "address"
        }
      ],
      "name": "Failed",
      "type": "event"
    },
    {
      "anonymous": false,
      "inputs": [
        {
          "indexed": false,
          "internalType": "uint256",
          "name": "noOfNotes",
          "type": "uint256"
        },
        {
          "indexed": false,
          "internalType": "string",
          "name": "DocHash",
          "type": "string"
        },
        {
          "indexed": false,
          "internalType": "address",
          "name": "add",
          "type": "address"
        }
      ],
      "name": "HashStored",
      "type": "event"
    },
    {
      "constant": true,
      "inputs": [
        {
          "internalType": "string",
          "name": "_hash",
          "type": "string"
        }
      ],
      "name": "verfiyHash",
      "outputs": [
        {
          "internalType": "string",
          "name": "result",
          "type": "string"
        }
      ],
      "payable": false,
      "stateMutability": "view",
      "type": "function"
    },
    {
      "constant": true,
      "inputs": [],
      "name": "getHashes",
      "outputs": [
        {
          "internalType": "string[]",
          "name": "",
          "type": "string[]"
        }
      ],
      "payable": false,
      "stateMutability": "view",
      "type": "function"
    },
    {
      "constant": false,
      "inputs": [
        {
          "internalType": "string",
          "name": "_hash",
          "type": "string"
        }
      ],
      "name": "uploadHash",
      "outputs": [],
      "payable": false,
      "stateMutability": "nonpayable",
      "type": "function"
    }
  ],
  "bytecode": "0x6080604052600060015534801561001557600080fd5b50336000806101000a81548173ffffffffffffffffffffffffffffffffffffffff021916908373ffffffffffffffffffffffffffffffffffffffff160217905550610a3c806100656000396000f3fe608060405234801561001057600080fd5b50600436106100415760003560e01c80634245d48e146100465780637e0b6fec14610064578063abde39de14610080575b600080fd5b61004e6100b0565b60405161005b91906107bf565b60405180910390f35b61007e6004803603610079919081019061061d565b6101d7565b005b61009a6004803603610095919081019061061d565b6102e7565b6040516100a791906107e1565b60405180910390f35b6060806001546040519080825280602002602001820160405280156100e957816020015b60608152602001906001900390816100d45790505b5090506000600190505b60015481116101cf57600260008281526020019081526020016000208054600181600116156101000203166002900480601f0160208091040260200160405190810160405280929190818152602001828054600181600116156101000203166002900480156101a35780601f10610178576101008083540402835291602001916101a3565b820191906000526020600020905b81548152906001019060200180831161018657829003601f168201915b50505050508260018303815181106101b757fe5b602002602001018190525080806001019150506100f3565b508091505090565b6000809054906101000a900473ffffffffffffffffffffffffffffffffffffffff1673ffffffffffffffffffffffffffffffffffffffff163373ffffffffffffffffffffffffffffffffffffffff1614156102aa57600160008154809291906001019190505550806002600060015481526020019081526020016000209080519060200190610267929190610524565b507fe05a2d3e41f24f800458d1f94a7374edae7122ce6db1f9077e17f17f467965ab600154823360405161029d93929190610833565b60405180910390a16102e4565b7fb3ee00518378ed272dcbfcaf40fb74b7b79a035a0392c02539744e2fcab47bce81336040516102db929190610803565b60405180910390a15b50565b60606000809054906101000a900473ffffffffffffffffffffffffffffffffffffffff1673ffffffffffffffffffffffffffffffffffffffff163373ffffffffffffffffffffffffffffffffffffffff1614156104e3576000600190505b60015481116104a2576060600260008381526020019081526020016000208054600181600116156101000203166002900480601f0160208091040260200160405190810160405280929190818152602001828054600181600116156101000203166002900480156103f75780601f106103cc576101008083540402835291602001916103f7565b820191906000526020600020905b8154815290600101906020018083116103da57829003601f168201915b505050505090508360405160200161040f91906107a8565b604051602081830303815290604052805190602001208160405160200161043691906107a8565b604051602081830303815290604052805190602001201415610494576040518060400160405280601281526020017f41757468656e74696320446f63756d656e7400000000000000000000000000008152509250829250505061051f565b508080600101915050610345565b506040518060400160405280600d81526020017f4e6f742041757468656e74696300000000000000000000000000000000000000815250905080905061051f565b6040518060400160405280601381526020017f596f7520617265204e6f7420616c6c6f7765640000000000000000000000000081525090508090505b919050565b828054600181600116156101000203166002900490600052602060002090601f016020900481019282601f1061056557805160ff1916838001178555610593565b82800160010185558215610593579182015b82811115610592578251825591602001919060010190610577565b5b5090506105a091906105a4565b5090565b6105c691905b808211156105c25760008160009055506001016105aa565b5090565b90565b600082601f8301126105da57600080fd5b81356105ed6105e88261089e565b610871565b9150808252602083016020830185838301111561060957600080fd5b6106148382846109a6565b50505092915050565b60006020828403121561062f57600080fd5b600082013567ffffffffffffffff81111561064957600080fd5b610655848285016105c9565b91505092915050565b600061066a8383610760565b905092915050565b61067b81610970565b82525050565b600061068c826108da565b6106968185610908565b9350836020820285016106a8856108ca565b8060005b858110156106e457848403895281516106c5858261065e565b94506106d0836108fb565b925060208a019950506001810190506106ac565b50829750879550505050505092915050565b6000610701826108f0565b61070b818561092a565b935061071b8185602086016109b5565b610724816109e8565b840191505092915050565b600061073a826108f0565b610744818561093b565b93506107548185602086016109b5565b80840191505092915050565b600061076b826108e5565b6107758185610919565b93506107858185602086016109b5565b61078e816109e8565b840191505092915050565b6107a281610966565b82525050565b60006107b4828461072f565b915081905092915050565b600060208201905081810360008301526107d98184610681565b905092915050565b600060208201905081810360008301526107fb81846106f6565b905092915050565b6000604082019050818103600083015261081d81856106f6565b905061082c6020830184610672565b9392505050565b60006060820190506108486000830186610799565b818103602083015261085a81856106f6565b90506108696040830184610672565b949350505050565b6000604051905081810181811067ffffffffffffffff8211171561089457600080fd5b8060405250919050565b600067ffffffffffffffff8211156108b557600080fd5b601f19601f8301169050602081019050919050565b6000819050602082019050919050565b600081519050919050565b600081519050919050565b600081519050919050565b6000602082019050919050565b600082825260208201905092915050565b600082825260208201905092915050565b600082825260208201905092915050565b600081905092915050565b600073ffffffffffffffffffffffffffffffffffffffff82169050919050565b6000819050919050565b600061097b82610982565b9050919050565b600061098d82610994565b9050919050565b600061099f82610946565b9050919050565b82818337600083830152505050565b60005b838110156109d35780820151818401526020810190506109b8565b838111156109e2576000848401525b50505050565b6000601f19601f830116905091905056fea365627a7a723158202b4a09b1d13475519500f160ac1c3e0ce7386fb0e2ac77be319a57c5795c5d7a6c6578706572696d656e74616cf564736f6c63430005100040",
  "source": "pragma solidity 0.5.16;\npragma experimental ABIEncoderV2;\n\ncontract SimpleStorage {\n   //owner of this contract (institution or enterprise)\n    address owner;\n    uint n = 0;\n    //array of all DocHashes of account\n    mapping(uint => string) DocHashes;\n\n    constructor() public{\n        owner = msg.sender;\n    }\n\n  event HashStored(\n    uint noOfNotes,\n    string DocHash,\n    address add\n  );\n\n  event Failed(\n      string HashToStored,\n      address add\n      );\n\n\n  function verfiyHash(string memory _hash) public view returns(string memory result){\n        if(msg.sender==owner){\n            for(uint i = 1;i<=n;i++){\n                string memory temp = DocHashes[i];\n                if(keccak256(abi.encodePacked(temp)) == keccak256(abi.encodePacked(_hash))){\n                    result = \"Authentic Document\";\n                    return result;\n                }\n            }\n            result = \"Not Authentic\";\n            return result;\n        }\n        result = \"You are Not allowed\";\n        return result;\n    }\n\n    function getHashes() public view returns(string[] memory){\n        string[] memory allHashes = new string[](n);\n        for(uint i = 1;i<=n;i++){\n            allHashes[i-1] = DocHashes[i];\n        }\n        return allHashes;\n    }\n\n  function uploadHash(string memory _hash) public {\n      if(msg.sender==owner){\n        n++;\n        DocHashes[n] = _hash;\n        emit HashStored(n, _hash, msg.sender);\n      }\n     else{\n         emit Failed(_hash,msg.sender);\n     }\n  }\n  \n}\n",
  "sourcePath": "C:/Users/akshay/SecureDOC/contracts/SimpleStorage.sol",
  "compiler": {
    "name": "solc",
    "version": "0.5.16+commit.9c3226ce.Emscripten.clang"
  },
  "schemaVersion": "3.3.3",
  "updatedAt": "2021-02-07T09:21:23.158Z",
  "networkType": "ethereum",
  "devdoc": {
    "methods": {}
  },
  "userdoc": {
    "methods": {}
  }
}