{
  "contractName": "SimpleStorage",
  "abi": [
    {
      "inputs": [],
      "payable": false,
      "stateMutability": "nonpayable",
      "type": "constructor"
    },
    {
      "anonymous": false,
      "inputs": [
        {
          "indexed": false,
          "internalType": "string",
          "name": "HashToStored",
          "type": "string"
        },
        {
          "indexed": false,
          "internalType": "address",
          "name": "add",
          "type": "address"
        }
      ],
      "name": "Failed",
      "type": "event"
    },
    {
      "anonymous": false,
      "inputs": [
        {
          "indexed": false,
          "internalType": "uint256",
          "name": "noOfNotes",
          "type": "uint256"
        },
        {
          "indexed": false,
          "internalType": "string",
          "name": "DocHash",
          "type": "string"
        },
        {
          "indexed": false,
          "internalType": "address",
          "name": "add",
          "type": "address"
        }
      ],
      "name": "HashStored",
      "type": "event"
    },
    {
      "constant": true,
      "inputs": [
        {
          "internalType": "string",
          "name": "_hash",
          "type": "string"
        }
      ],
      "name": "verfiyHash",
      "outputs": [
        {
          "internalType": "string",
          "name": "result",
          "type": "string"
        }
      ],
      "payable": false,
      "stateMutability": "view",
      "type": "function"
    },
    {
      "constant": true,
      "inputs": [],
      "name": "getNo",
      "outputs": [
        {
          "internalType": "uint256",
          "name": "no",
          "type": "uint256"
        }
      ],
      "payable": false,
      "stateMutability": "view",
      "type": "function"
    },
    {
      "constant": true,
      "inputs": [
        {
          "internalType": "uint256",
          "name": "id",
          "type": "uint256"
        }
      ],
      "name": "getHashFromId",
      "outputs": [
        {
          "internalType": "string",
          "name": "Hash",
          "type": "string"
        }
      ],
      "payable": false,
      "stateMutability": "view",
      "type": "function"
    },
    {
      "constant": false,
      "inputs": [
        {
          "internalType": "string",
          "name": "_hash",
          "type": "string"
        }
      ],
      "name": "uploadHash",
      "outputs": [],
      "payable": false,
      "stateMutability": "nonpayable",
      "type": "function"
    }
  ],
  "bytecode": "0x6080604052600060015534801561001557600080fd5b50336000806101000a81548173ffffffffffffffffffffffffffffffffffffffff021916908373ffffffffffffffffffffffffffffffffffffffff160217905550610946806100656000396000f3fe608060405234801561001057600080fd5b506004361061004c5760003560e01c80637e0b6fec146100515780639f0314fc1461006d578063abde39de1461008b578063f5619d3e146100bb575b600080fd5b61006b60048036036100669190810190610605565b6100eb565b005b6100756101fb565b6040516100829190610760565b60405180910390f35b6100a560048036036100a09190810190610605565b610205565b6040516100b2919061070e565b60405180910390f35b6100d560048036036100d09190810190610646565b610442565b6040516100e2919061070e565b60405180910390f35b6000809054906101000a900473ffffffffffffffffffffffffffffffffffffffff1673ffffffffffffffffffffffffffffffffffffffff163373ffffffffffffffffffffffffffffffffffffffff1614156101be5760016000815480929190600101919050555080600260006001548152602001908152602001600020908051906020019061017b9291906104f7565b507fe05a2d3e41f24f800458d1f94a7374edae7122ce6db1f9077e17f17f467965ab60015482336040516101b19392919061077b565b60405180910390a16101f8565b7fb3ee00518378ed272dcbfcaf40fb74b7b79a035a0392c02539744e2fcab47bce81336040516101ef929190610730565b60405180910390a15b50565b6000600154905090565b60606000809054906101000a900473ffffffffffffffffffffffffffffffffffffffff1673ffffffffffffffffffffffffffffffffffffffff163373ffffffffffffffffffffffffffffffffffffffff161415610401576000600190505b60015481116103c0576060600260008381526020019081526020016000208054600181600116156101000203166002900480601f0160208091040260200160405190810160405280929190818152602001828054600181600116156101000203166002900480156103155780601f106102ea57610100808354040283529160200191610315565b820191906000526020600020905b8154815290600101906020018083116102f857829003601f168201915b505050505090508360405160200161032d91906106f7565b604051602081830303815290604052805190602001208160405160200161035491906106f7565b6040516020818303038152906040528051906020012014156103b2576040518060400160405280601281526020017f41757468656e74696320446f63756d656e7400000000000000000000000000008152509250829250505061043d565b508080600101915050610263565b506040518060400160405280600d81526020017f4e6f742041757468656e74696300000000000000000000000000000000000000815250905080905061043d565b6040518060400160405280601381526020017f596f7520617265204e6f7420616c6c6f7765640000000000000000000000000081525090508090505b919050565b6060600260008381526020019081526020016000208054600181600116156101000203166002900480601f0160208091040260200160405190810160405280929190818152602001828054600181600116156101000203166002900480156104eb5780601f106104c0576101008083540402835291602001916104eb565b820191906000526020600020905b8154815290600101906020018083116104ce57829003601f168201915b50505050509050919050565b828054600181600116156101000203166002900490600052602060002090601f016020900481019282601f1061053857805160ff1916838001178555610566565b82800160010185558215610566579182015b8281111561056557825182559160200191906001019061054a565b5b5090506105739190610577565b5090565b61059991905b8082111561059557600081600090555060010161057d565b5090565b90565b600082601f8301126105ad57600080fd5b81356105c06105bb826107e6565b6107b9565b915080825260208301602083018583830111156105dc57600080fd5b6105e7838284610899565b50505092915050565b6000813590506105ff816108ec565b92915050565b60006020828403121561061757600080fd5b600082013567ffffffffffffffff81111561063157600080fd5b61063d8482850161059c565b91505092915050565b60006020828403121561065857600080fd5b6000610666848285016105f0565b91505092915050565b61067881610863565b82525050565b600061068982610812565b610693818561081d565b93506106a38185602086016108a8565b6106ac816108db565b840191505092915050565b60006106c282610812565b6106cc818561082e565b93506106dc8185602086016108a8565b80840191505092915050565b6106f181610859565b82525050565b600061070382846106b7565b915081905092915050565b60006020820190508181036000830152610728818461067e565b905092915050565b6000604082019050818103600083015261074a818561067e565b9050610759602083018461066f565b9392505050565b600060208201905061077560008301846106e8565b92915050565b600060608201905061079060008301866106e8565b81810360208301526107a2818561067e565b90506107b1604083018461066f565b949350505050565b6000604051905081810181811067ffffffffffffffff821117156107dc57600080fd5b8060405250919050565b600067ffffffffffffffff8211156107fd57600080fd5b601f19601f8301169050602081019050919050565b600081519050919050565b600082825260208201905092915050565b600081905092915050565b600073ffffffffffffffffffffffffffffffffffffffff82169050919050565b6000819050919050565b600061086e82610875565b9050919050565b600061088082610887565b9050919050565b600061089282610839565b9050919050565b82818337600083830152505050565b60005b838110156108c65780820151818401526020810190506108ab565b838111156108d5576000848401525b50505050565b6000601f19601f8301169050919050565b6108f581610859565b811461090057600080fd5b5056fea365627a7a723158205712748f24aeeef9dbbe7e752916e4a65ed16e6ea9683b1e0862254ee7566f586c6578706572696d656e74616cf564736f6c63430005100040",
  "source": "pragma solidity 0.5.16;\npragma experimental ABIEncoderV2;\n\ncontract SimpleStorage {\n   //owner of this contract (institution or enterprise)\n    address owner;\n    uint n = 0;\n    //array of all DocHashes of account\n    mapping(uint => string) DocHashes;\n\n    constructor() public{\n        owner = msg.sender;\n    }\n\n  event HashStored(\n    uint noOfNotes,\n    string DocHash,\n    address add\n  );\n\n  event Failed(\n      string HashToStored,\n      address add\n      );\n\n\n  function verfiyHash(string memory _hash) public view returns(string memory result){\n        if(msg.sender==owner){\n            for(uint i = 1;i<=n;i++){\n                string memory temp = DocHashes[i];\n                if(keccak256(abi.encodePacked(temp)) == keccak256(abi.encodePacked(_hash))){\n                    result = \"Authentic Document\";\n                    return result;\n                }\n            }\n            result = \"Not Authentic\";\n            return result;\n        }\n        result = \"You are Not allowed\";\n        return result;\n    }\n\n    function getNo() public view returns(uint no){\n      no = n;\n    }\n\n      function getHashFromId(uint id) public view returns(string memory Hash){\n        Hash = DocHashes[id];\n    }\n\n   /* function getHashes() public view returns(string[] memory){\n        string[] memory allHashes = new string[](n);\n        for(uint i = 1;i<=n;i++){\n            allHashes[i-1] = DocHashes[i];\n        }\n        return allHashes;\n    }*/\n\n  function uploadHash(string memory _hash) public {\n      if(msg.sender==owner){\n        n++;\n        DocHashes[n] = _hash;\n        emit HashStored(n, _hash, msg.sender);\n      }\n     else{\n         emit Failed(_hash,msg.sender);\n     }\n  }\n  \n}\n",
  "sourcePath": "C:/Users/akshay/SecureDOC/contracts/SimpleStorage.sol",
  "compiler": {
    "name": "solc",
    "version": "0.5.16+commit.9c3226ce.Emscripten.clang"
  },
  "schemaVersion": "3.3.3",
  "updatedAt": "2021-02-07T15:44:31.411Z",
  "networkType": "ethereum",
  "devdoc": {
    "methods": {}
  },
  "userdoc": {
    "methods": {}
  }
}